:10013A00E4F51BF51CF510F511F512F513F514F598
:05014A0015F516F51784
:10016800858218C2D575F002E51330E704B2D5F4DC
:1001780004A430D50AF42401C5F0F43400C5F024F1
:1001880084F582740835F0F583E493F519A3E493B4
:10019800F51AAB19C423CBC423541F6BCB541FCB04
:1001A8006BCBFC8B018C02E4FBFCE51830E213A856
:1001B80019AD1AE4FEFFE829F9ED3AFAEE3BFBEF38
:1001C8003CFCE51830E11DAE19E51AC313CE13CE79
:1001D800FF8E008F05E4FEFFE829F9ED3AFAEE3BC1
:1001E800FBEF3CFCE51830E022AE19E51AC313CE4C
:1001F80013CEC313CE13CEFF8E008F05E4FEFFE8A7
:1002080029F9ED3AFAEE3BFBEF3CFCE51830E31731
:10021800E514C399F514E5159AF515E5169BF51639
:10022800E5179CF5178014E92514F514EA3515F53A
:1002380015EB3516F516EC3517F517C374FF95143D
:10024800747F9515E4951674808517F063F0809592
:10025800F0500D7514FF75157FE4F516F517801D20
:10026800C3E5159480E51694FFE5176480947F50E4
:100278000C7514007515807516FF7517FFE5189035
:100288000936932513F51330E7057513008010C35D
:1002980074D88513F063F08095F05003751358E413
:1002A800F52B752C01F52DF52E8514828515838582
:1002B80016F0E517120812AC8274802CF5822275AC
:1002C800BA8090FECCE4F090FEC97460F090FECC49
:1002D8007410F090FED7E4F090FED87480F090FE91
:1002E800D223F090FED3E4F090FEB17404F090FEB7
:1002F800DD7480F090FEC023F022C0E0C082C0838D
:10030800C007C0D075D00090FEE5E4F0E511B51047
:10031800028016AF100510EF2401F582E43400F5D1
:1003280083E0FF90FED8F0801875100075110075F5
:10033800120090FED87480F090FEE0E4F090FEE4A5
:10034800F0D0D0D007D083D082D0E032E510FF14AF
:10035800FEB511030204C01F1FEFB511030204C04C
:10036800752BFF752C00851B82851C831207C5E53C
:10037800828583F045F06003020411E51B2446FEE4
:10038800E51C3409FF7D808E828F838DF01208640E
:10039800FEA3120864FF8E14EFF5153395E0F516E9
:1003A800F5177402251BF51BE4351CF51CE5112413
:1003B80001FEE43400FFE4F52B752C01F52DF52E34
:1003C8008514828515838516F0E517C007C00612C7
:1003D8000812AA82D006D00774802A8E828F83F0F2
:1003E8008E828F83E0F5821207330511AE1BAF1C96
:1003F800051BE4B51B02051CEE2446F582EF340903
:10040800F583E493F513020354E5112401FEE43463
:1004180000FFE51B2446F582E51C3409F583E493C7
:10042800FD740F5DF582C007C006120168AD82D069
:1004380006D0078E828F83EDF0E5112401F582E462
:100448003400F583E0F5821207330511E511240124
:10045800FEE43400FFE51B2446F582E51C3409F56B
:1004680083E493C4540FF582C007C006120168AD37
:1004780082D006D0078E828F83EDF0E5112401F536
:1004880082E43400F583E0F5821207330511051B79
:10049800E4B51B02051C74AAB51B07740CB51C0235
:1004A8008003020354E4F51BF51CF513F514F51548
:1004B800F516F51775820022E512702590FEEEE418
:1004C800F090FEEFF090FEF2740AF090FEF374CD17
:1004D800F090FEE5E4F090FEE404F090FEE0F0F524
:0504E8001275820122E3
:100884000700080009000A000B000C000D000E0010
:100894001000110013001500170019001C001F00A0
:1008A4002200250029002D00320037003C004200C0
:1008B40049005000580061006B00760082008F00F0
:1008C4009D00AD00BE00D100E600FD00170133011C
:1008D400510173019801C101EE01200256029202F6
:1008E400D4021C036C03C30324048E040205830591
:1008F4001006AB0656071208E008C309BD0AD00B60
:10090400FF0C4C0EBA0F4C110713EE1406175419B2
:10091400DC1BA51EB6211525CA28DF2C5B314B36FE
:10092400B93BB24144487E4F71572F60CE6962741F
:10093400FF7FFFFFFFFF02040608FFFFFFFF020423
:1009440006080700005F1F50119D996089BC9C60D8
:10095400106B795292DE8A3115B0BB182681BB9A8E
:100964004302B8AA202490AB0A2182190484BE8BC6
:100974002790CD3A3694CB9A3103A1BB7912AAAC15
:100984003225A1DBAB322781CB0B148088A88811D8
:10099400C83826CA4013F9DB103401C99A82900979
:1009A4003513FB0B14B08C4492AE192220988B1291
:1009B400E39B0302C813A917B98F411298BE1934D7
:1009C4009098AC4384E9983222C89E22B1C84A5414
:1009D40098BB9825929B61A0CA20022822EAAF20E6
:1009E40035C0AB4103CA8C6282CA093398AA30135A
:1009F400EB1914AA0A32C08006C8893113EC092302
:100A0400A11C22F18C4103C98915C88A3191A80817
:100A14002599AB51C10918A2C004940AB1F14384C9
:100A240031A0DA28FD9F30A18953024104BB38A4C8
:100A3400FC9B10990A532403093014B1AABDFF8A00
:100A440002B5B84B30269098A948159809D8BD0826
:100A5400115024B08A984854B08AA0CC0B31312666
:100A6400B00B00093792ABABDC8C224314BA8A007A
:100A74004315989ACB9CBD521330C19D211151A0AE
:100A84009BA0CBBC32270099AA20161181CB89CA1E
:100A9400BE223325BB9B30360100AD08E9CA48218C
:100AA40042D88A10428288988BBAEF100341A89BDF
:100AB4001034039899ABC9EF10202499AA3A253130
:100AC400988CA8A9FB2D1072989889241002DA80BA
:100AD4009ADB2A0254A08989441191AAB9B0EF1073
:100AE400392489D02922338A9A9EC1BC825013802A
:100AF400CB11420688A90BC9AD8250230ADA2824F7
:100B040023B8C9AAB8AF80628381BC83628300AD75
:100B1400988A9D916202808C186201A1AAB9C91EAB
:100B2400891502810D084301A29DB9BA1C29271019
:100B3400B11A292710C0999CEA814A1221AAB260ED
:100B4400691D493190AACCC92C1C1421A1881A15FD
:100B540033A0E99CDB183B0621A8915A010508D96A
:100B640099AC906B012208B030001700C8C9BCC012
:100B740038301528B8213987119AD9BC9A2B3345B6
:100B840080A238290620C0B8AF8B1D812420912073
:100B94003B125209F0BA8FA901321295201A21583A
:100BA40018A8CCBDC9192016210881202083B3CCF4
:100BB400CEAB9C105231121119A31518F1A99FBA8A
:100BC4000848221322280103710AD9CB9D9C804234
:100BD40021842119A3041089DBFB9B8E80222284AB
:100BE40083020082312DCCBB9F9B884242120410A9
:100BF40088A3022ABCEDAB8E893260019482800006
:100C0400381AA9FB9C8E8A01231423302A90214A86
:100C14009AFADCD99918223343118211299293AD9F
:100C2400CFAC9DA812521284120000382AB8FBBC23
:100C3400CC9B8923543112021218A2B5A0ADBF4730
:100C4400E244AC99217121212100B38400A8DABCCB
:100C5400BECB98115241311212205A3B8BEACAEB97
:100C6400C9A00241402132302990C398ACCDAC9D3B
:100C74008A811424321303011808B8CCBECDBB9A60
:100C8400207231313131188193A0FBEBDBCA894AE0
:100C9400200413228384213AA8D9ACAE9D8C888386
:100CA40015313012029383089DCCCB9E9C999306F8
:100CB400223120124829B0D4A8ABAEBC8A294233D1
:100CC400141422481880A0BABDCDBCBB8842332579
:100CD400332212030298CBECCABD9D9A10334324ED
:100CE4001313212008AADCCBCDBC9B093335333345
:100CF400232303130BBEDBBDAFAC892023152332A2
:100D040021121190C9BBCECDAC8B193225233332BD
:100D1400131301A9AFDBDCBBAC192124243232321A
:100D2400120388CBDCECCBBB893042433333323102
:100D34000202BBDDDCBDCB9A104232243322AC1D4F
:100D44003A021200CBFBDBBCBC8A202443232322BF
:100D5400021201A8BECDDCCAAA18324333241212EF
:100D64001112A0EADBDCBBAD8831433223232222FB
:100D74001381CBBFCDBCCB89114343221222222243
:100D840000C9BDCDBDBC99204343222222311201AA
:100D9400B9EDDBCCBA9B103434223222332301C99F
:100DA400DCCCCCCAA9083234333232242311A9FB57
:100DB400DBCCBBBB09314523232343220198DBBC95
:100DC400CECBAA99114324242222221098BACEBC55
:100DD400BDAB9A083345423232220190B9BDDDBB26
:100DE400BBAB092135345333221288A0BBBEBEBB32
:100DF400AA9A102143443234321202BACCDBACA991
:100E04008A98211111633412330188C8BFABAC89AD
:100E14000008114162223222208499D8DEA909B83F
:100E2400CA09120311273326112281BACEAD88A034
:100E34009810449280218E21C80851A0BC85FD25BC
:100E44000E91AD63537177E8AB3114A91A2280C9AE
:100E5400AA284682AB0A11B0AC201481888988186C
:100E64002044A19A2890F8FF283490BB0A218830A6
:100E74003592BD1823CB0D21D0BC4034988B5383BD
:100E8400BB392690CACE8A110110448199103401CD
:100E940098A8FABF9B28314413A08A21325401FA3E
:100EA400CCAB8A41342280999A413503A0FEBC0917
:100EB40022232381BB9C41434481CCBDAB31250219
:100EC4000888BB09642322D8CDAB1A53138099999F
:100ED4008931363383EDBC9B4825819899993142F9
:100EE4002132A0EEBBAB6224809B89884313085057
:100EF40081DCBC8B622398AB89213312107303DD30
:100F0400CC8A5222A8AA89322481886001EBBC9A37
:100F14004413B89B09412480893194E9FB9A421314
:100F240098AB0A312591903314BCBFAC4825909BF3
:100F340089383490194382DADBAD28356C2A4EA9FE
:100F4400AA08521299204391CDBACB3137A8AB19D4
:100F5400403288195481ABDBBC1A4681AB0A21228A
:100F640002804106C0B9FB9A4214B99B303121106A
:100F74002864A08CB9CF182590AB09322389383561
:100F840082DABACE0A6381B98A312480194313CA3A
:100F94009CD9AD3815A0AB102581193303A0CAEC38
:100FA400CC193490AA084122004034B0AAD1CF8B86
:100FB4004381A9882032123055009AA8DE9C382338
:100FC400A99B105313097304A908D9BD092292AA35
:100FD400884333287153900AA9CF9B3102A98B33DC
:100FE4001582022704B889FABC1813909A29531160
:100FF40020431691A9B8DF9A2002A989302681409E
:101004003313B8CAFABE0802908900621218523229
:10101400809BA9FF0B1081A9882224823136139862
:10102400CAFA9F00818889102321207332918AFB98
:10103400AF18000899094203113433CE3B3DB0BACE
:10104400FF9B1800889A381432345253909AF9ADA1
:10105400088080A0183330732252929AF0EB8808EB
:1010640010888B312334245202ABA9EF999001A24A
:101074009910522342330490D9AF8B890090A81160
:101084001463336221A889EDAA888081A909326298
:101094005323449099FAAA898908980A114226246C
:1010A40025139AD9CC9999198809182254344423C0
:1010B400A899DCBBAA9A801908022527443201B2F8
:1010C400EACBAB8B8A002081333763430282D0DBC7
:1010D400BBBA8908303020442445238392FBCBBB20
:1010E400AB8910403112233753040298AEBCBABA0C
:1010F40091023362212244330493D9DCABAC091945
:101104002084234042522283B2DBBECB9A09183199
:1011140023413117532092B1BCCD9C8A0918030393
:10112400053143445008B0CACB9D0B990211324299
:101134003154510193A1DBDBAC8B41CA4218282105
:1011440033324373321312AABEBECBAA884848383E
:1011540001832462311280AABFADBB9808313143A8
:101164002094153233052AF0AAADAB8AA8031315CF
:1011740023231573189408D9C9C9AA99188216107B
:101184008348822732B302CFC9ABA9104003238816
:10119400B44A8046508200BCDBACA82020141281E3
:1011A400888A29723485039CDBBBBB883034333195
:1011B400B1909B59737301B309AFDA8909013221E4
:1011C40002008A9832545402A3B9AFADAA991141CE
:1011D4002333389999B03471263009EBCA9C9C8822
:1011E4001132232428B0981B20363521B2CADEBA26
:1011F400BB892042152300B1A80A3072348594803B
:10120400CAAC9EAA9811412314118AD8802941346A
:101214005210A1B9BFEBAA89293044210290C08899
:101224004B2824354180B1CA9F9E998928211423D3
:1012340010B1A00D0A122625220F2B3C819BBECC97
:10124400AB9C98022443221288CAB08928264551AF
:101254002898E1B9DBBA992A381515311098880C09
:101264008AA10544601080A0DBBC9D9B8820432498
:1012740014019099AAA9186153241310ABF9DC9BAB
:101284009C882051221382889BBB99397053331454
:101294002209DBFBCA9C9A093052332381C0C899C6
:1012A4000A29332743221180BADEEBCAA909104365
:1012B400432202A1B98C8C8032443315221AAAFA33
:1012C400CCAC9C8A003244231280A8D9B818583177
:1012D40014242280C2B0BEBFDBA98811523342104D
:1012E40098A89B8B00636121030200A9F8ADAECAE4
:1012F400A8183043252100A8B8AA9A024551211202
:1013040001B1D2D8AD9FAAA8003134151300A8B9F1
:10131400AA8B11265332128380B8FBCF9CAB990061
:1013240052421304000ABAB888282416322203123F
:101334002ABFCFACBBA90043B8E13D25230190A946
:10134400ABBB0943543325221190A8EFCCBA9A0AB7
:10135400214433332189BADBA90831353462108042
:101364008100DBCFCBBA99284153321282889BDBB0
:10137400A8284234432211000809FFCDC99909283D
:101384003325231391B88C8D8900324333322102E3
:10139400C4DBDFBBBA9A19433542230190BAAC9B34
:1013A4008842531413212120D9FDCBBBBA9931545F
:1013B40042321281B0C9AA9B0A424443211333909A
:1013C400FCECBA9B8B092326241212108ADAAA9900
:1013D40008425332434180D3E8ADAC9A8A00333596
:1013E400432111A1C0A9AB0C29513315235210B8C4
:1013F400FDCBAA9A8928332633221200AABCDA9993
:1014040011524223333284FABDBDABAA892144432D
:10141400321302A1999E9A88123463323412DADDAF
:10142400DAB9A98928434323231280ABBACAA93263
:101434003552343402E1ACB70439DCAB8B192034B7
:101444002514211008B9C9A8104153432212C1DD43
:10145400CCCAAA8910223533222280A8BA9C8802D9
:101464005344433281FBCCBCCBAA80225343221188
:10147400000098AA8B183373542308A8FCCCBBAB88
:10148400081043252322110899B99B284344542268
:1014940002B8DFCBBBBB092143352322018089A9D4
:1014A40099206253432312C0CFCCABAB8910424383
:1014B40033241181989989194425211591BCDDCBD8
:1014C400ABAA892133352512128188998942544364
:1014D4001190B0CFCCAB9B9A8842442323120000D6
:1014E400A89A187222034281F8BEDBABAB9828534A
:1014F4003424231180A8AA9A082126214293EBCDF3
:10150400DBAB9A890052433334321298CAACAA88AE
:1015140020228010DBADEBCB9A010012523434311F
:101524002382AABABF99988909B1E9CBCA988911CB
:10153400644422131291DC0320CACAADAABB0A1068
:101544003246333314AABCCBAF5A820001810098CF
:10155400A188B88100A0928002628201BDA58A9808
:1015640080A1080BFF80888098B092628034941226
:10157400422432228CC9AEBCDB9B20599231012318
:10158400B39A1C86323B174311B0D1DBCA9D8A80C3
:1015940011414131039298ADBC990041603225223A
:1015A400A1C9ADBCBA99923341422392B99EBBDA28
:1015B400901252432316229AAAAEB9AB0A90061986
:1015C400880400BA98A030E325622381809AACBADB
:1015D400AC9AA90019B930043173828101A211B205
:0C15E400F00808080809000000000000E2
:060000000200E1020635DA
:03000B00020639B1
:030013000206687A
:03001B0002066C6E
:0300230002069042
:03002B000206705A
:030033000206744E
:03003B0002067842
:0300430002067C36
:03004B000206802A
:030053000206841E
:03005B0002068812
:0300630002068C06
:01006B003262
:01007300325A
:01007B003252
:01008300324A
:01008B003242
:01009300323A
:01009B003232
:0100A300322A
:0100AB003222
:0100B300321A
:0100BB003212
:0100C300320A
:0100CB003202
:0100D30032FA
:0300DB000203021B
:0B014F00752800752900752A00D200F9
:030165000200DEB7
:0300DE000205F028
:1004ED00758E00759850758BFC758DFFD28E758944
:1004FD000075A892758ACD758CF8D28C2275C1269F
:10050D0075C1367590007592FF75910075B00F75B8
:10051D00B2F275B10075C80075CA0075C9002274B4
:10052D0036B52902801E743FB52902803A7443B551
:10053D002902804C1202C730004B7526FF752936F3
:10054D0075820022E5266013E527700FAF26BFFFE9
:10055D00028004EF14F52675820122E527FF60D78E
:10056D00EF14F527752801E52860CC120354E582B8
:10057D00600775293F75820A227529437582C82245
:10058D0075280080E27529007582FF227452B52A04
:10059D000280227455B52A028025745CB52A02802A
:1005AD002A745DB52A02802075270030002E752A29
:1005BD005275820A2220B3F3752A557582142220B2
:1005CD00B3E9E527FF04F52720B3E020B307752A2B
:1005DD005C75821422752A5D75821422752A007548
:1005ED0082FF227F058F06EE142421F87600DFF5B9
:1005FD0012050A1204ED9015F075F0801206E475DF
:10060D00C136E521700F12052CAF82EFB5210280A6
:10061D00048F2180F6E52270E6120599AF82EFB5C1
:08062D00220280DB8F2280F61F
:0B15F0007374617274207570210A0092
:1006350043C76032C0E0C0D075D0087F058F0EEE8D
:10064500142421F9E76015EE142421F9870DBDFF67
:10065500028009EE142421F9E7FE14F7DFDFD0D07C
:10066500D0E03243C7603243C7603243C76032438C
:10067500C7603243C7603243C7603243C760324305
:0B068500C7603243C7603243C76032D9
:0B015A00751D00751E00751F00C2011E
:10069000C0E0C082C083C007C0D075D000109902EE
:1006A0008024E51EB51D028015E51DFF04F51DEF34
:1006B0002401F582E43401F583E0F5998008C20154
:1006C000751D00751E00109802800EE51F04F51FB1
:1006D000E51F24F9500343C760D0D0D007D083D0A2
:1006E00082D0E032AD82AE83AFF08D828E838FF008
:1006F0001208646025E51EFC04F51EEC2401FCE4F0
:100700003401FB8D828E838FF0120864FAA3AD82D0
:10071000AE838C828B83EAF080D0200115D201E574
:100720001DFF04F51DEF2401F582E43401F583E09B
:10073000F59922AF82E51EFE04F51EEE2401F58236
:10074000E43401F583EFF0200115D201E51DFF042B
:10075000F51DEF2401F582E43401F583E0F59922DB
:10076000FB7A20E4FCFDFEFFE5822582F582E5832D
:1007700033F583E5F033F5F0EB33FB4017DAE9802E
:1007800042E5822582F582E58333F583E5F033F592
:10079000F0EB33FBEC33FCED33FDEE33FEEF33FFD8
:1007A000EC952BED952CEE952DEF952E4013EC95B9
:1007B0002BFCED952CFDEE952DFEEF952EFF438243
:0507C00001DABEEB228E
:06011000E478FFF6D8FDC3
:1000EE007900E94400601B7A009015FB780175A039
:1000FE0002E493F2A308B8000205A0D9F4DAF2756F
:02010E00A0FF50
:1007C500E52B452C60467A01E52B25E0F52BE52C3C
:1007D500334012F52CE582952BE583952C40030AD1
:1007E50080E6C3E52C13F52CE52B13F52BC3E58229
:1007F500952BF5F0E583952C4005F58385F082C3AF
:0D080500E52C13F52CE52B13F52BDAE12281
:100116007800E84400600A790175A000E4F309D884
:10012600FC7800E84402600C7902900001E4F0A338
:04013600D8FCD9FA1E
:10081200FBC2D530E715D2D5E4C39582F582E495C3
:1008220083F583E495F0F5F0E49BFBE52E30E717C2
:10083200B2D5E4C3952BF52BE4952CF52CE4952D3C
:10084200F52DE4952EF52EEB12076030D513FBE45F
:10085200C39582F582E49583F583E495F0F5F0E49F
:020862009B22D7
:0D00E10075812E120880E58260030200DEAA
:1008640020F71430F6148883A88220F507E6A883BD
:1008740075830022E280F7E49322E022758200224D
:00000001FF
