:10013A00E4F51BF51CF510F511F512F513F514F598
:05014A0015F516F51784
:10016500858218C2D575F002E51330E704B2D5F4DF
:1001750004A430D50AF42401C5F0F43400C5F024F4
:1001850012F582740835F0F583E493F519A3E49329
:10019500F51AAB19C423CBC423541F6BCB541FCB07
:1001A5006BCBFC8B018C02E4FBFCE51830E213A859
:1001B50019AD1AE4FEFFE829F9ED3AFAEE3BFBEF3B
:1001C5003CFCE51830E11DAE19E51AC313CE13CE7C
:1001D500FF8E008F05E4FEFFE829F9ED3AFAEE3BC4
:1001E500FBEF3CFCE51830E022AE19E51AC313CE4F
:1001F50013CEC313CE13CEFF8E008F05E4FEFFE8AA
:1002050029F9ED3AFAEE3BFBEF3CFCE51830E31734
:10021500E514C399F514E5159AF515E5169BF5163C
:10022500E5179CF5178014E92514F514EA3515F53D
:1002350015EB3516F516EC3517F517C374FF951440
:10024500747F9515E4951674808517F063F0809595
:10025500F0500D7514FF75157FE4F516F517801D23
:10026500C3E5159480E51694FFE5176480947F50E7
:100275000C7514007515807516FF7517FFE5189038
:1002850008C4932513F51330E7057513008010C3D3
:1002950074D88513F063F08095F05003751358E416
:1002A500F528752901F52AF52B8514828515838591
:1002B50016F0E5171207A0AC8274802CF582227522
:1002C500BA8090FECCE4F090FEC97460F090FECC4C
:1002D5007410F090FED7E4F090FED87480F090FE94
:1002E500D223F090FED3E4F090FEB17404F090FEBA
:1002F500DD7480F090FEC023F022C0E0C082C08390
:10030500C007C0D075D00090FEE5E4F0E511B5104A
:10031500028016AF100510EF2401F582E43400F5D4
:1003250083E0FF90FED8F0801875100075110075F8
:10033500120090FED87480F090FEE0E4F090FEE4A8
:10034500F0D0D0D007D083D082D0E032E510FF14B2
:10035500FEB511030204BD1F1FEFB511030204BD55
:100365007528FF752900851B82851C83120753E5B7
:10037500828583F045F0600302040EE51B24D4FE5C
:10038500E51C3408FF7D808E828F838DF01207F285
:10039500FEA31207F2FF8E14EFF5153395E0F5165F
:1003A500F5177402251BF51BE4351CF51CE5112416
:1003B50001FEE43400FFE4F528752901F52AF52B43
:1003C5008514828515838516F0E517C007C00612CA
:1003D50007A0AA82D006D00774802A8E828F83F068
:1003E5008E828F83E0F5821206C10511AE1BAF1C0C
:1003F500051BE4B51B02051CEE24D4F582EF340879
:10040500F583E493F513020351E5112401FEE43469
:1004150000FFE51B24D4F582E51C3408F583E4933D
:10042500FD740F5DF582C007C006120165AD82D06F
:1004350006D0078E828F83EDF0E5112401F582E465
:100445003400F583E0F5821206C10511E51124019A
:10045500FEE43400FFE51B24D4F582E51C3408F5E1
:1004650083E493C4540FF582C007C006120165AD3D
:1004750082D006D0078E828F83EDF0E5112401F539
:1004850082E43400F583E0F5821206C10511051BEF
:10049500E4B51B02051C7457B51B07740CB51C028B
:1004A5008003020351E4F51BF51CF513F514F5154E
:1004B500F516F51775820022E512702590FEEEE41B
:1004C500F090FEEFF090FEF2740AF090FEF374CD1A
:1004D500F090FEE5E4F090FEE404F090FEE0F0F527
:0504E5001275820122E6
:100812000700080009000A000B000C000D000E0082
:100822001000110013001500170019001C001F0012
:100832002200250029002D00320037003C00420032
:1008420049005000580061006B00760082008F0062
:100852009D00AD00BE00D100E600FD00170133018E
:10086200510173019801C101EE0120025602920268
:10087200D4021C036C03C30324048E040205830503
:100882001006AB0656071208E008C309BD0AD00BD2
:10089200FF0C4C0EBA0F4C110713EE140617541925
:1008A200DC1BA51EB6211525CA28DF2C5B314B3671
:1008B200B93BB24144487E4F71572F60CE69627492
:1008C200FF7FFFFFFFFF02040608FFFFFFFF020496
:1008D2000608760100FF7F57A90A009C8F883831ED
:1008E20062311B6BCFFF26B23C01F02818E80838B2
:1008F200A2B87B81983021E19910B8CC2101B04097
:1009020052910259A1C82CA0F91B20B21060848117
:100912003A01C48C0AC1A92B9213692117091994AF
:10092200A98F90A10D0984082817010B02829F89C3
:10093200919B9B15201C24240A980699AD91099E2F
:10094200802319003720B91221BFB910ACDA323036
:10095200A83445909841A9FB0909CA08510080733F
:1009620011A00011FA9A09A9C92842A251539280F2
:1009720039B1EC8B89C98A4013007214810901D8FC
:10098200AC8BB8CA1B3413485404800892DBAC9970
:10099200B88D0824113137020901B0BFABA0BB9C4E
:1009A2003325104533800882FBAC9AA9AC09342266
:1009B200313723880090BFCB89AB9C30530243452B
:1009C200818800B9CDAAA9BA9A722221731391081B
:1009D20000C14E44BFAA98AB8C3234314425008802
:1009E20091BCBEA9999C085332213623988090CF9E
:1009F200AB9AAAAA2146213245019800BACEA98A09
:100A0200BB896232225432808888ECBB9ABACA28E7
:100A120063122345038018C9EB9BAABA9A51233467
:100A22005333038888FBAD9BBAA91A61143253234E
:100A32008189B0ECAC9AA99A2935244124030898FB
:100A4200D9ADBBA9BA8B43363134250189A0EBBCA1
:100A5200AAAA9A0844434234220090D9BCBCBAAA3A
:100A6200AB31373343251288A0EACC9A9AB989531D
:100A720043223434818898DDBB9BBBBB2055233392
:100A820045129008BADDAB9ABB9A52432335240132
:100A92000888DCDB9AA9BA18512334442280809852
:100AA200DDBBAAB99C3844124433038008FADB9AAE
:100AB200AABA094124435323020898ECACAAB99A72
:100AC2001943254234121088D9CCABBAAA0B30276D
:100AD200EEE8423354218180AADDBA9AABAA41439F
:100AE200244353028008DBDB9BBABA185123263316
:100AF200C373B101BD88BD08B03A9543240803C948
:100B020011D889B8B9C1AD11A8551142048000FBB2
:100B120099BB9988102621438021B01CB28E01DC3A
:100B220000CB1990501441248811FA9ABA9B011AE9
:100B32003611519128908C04AB20F88AC98B8139E7
:100B42004711538108C89DA9BB1891731220840ACA
:100B520000CA30A929C28EB8AD188955225203089D
:100B6200B8CE99BB0A12603301239A88D92A810927
:100B720004BDA9CE0A91514431240898DD9ABA9B4A
:100B82002221361232A899A88E028852CA9AEA8C79
:100B920088205521438188EA9CAAAA301144232146
:100BA200A1AA88DB218040D39CCACC0818722342B8
:100BB2000388C9CDA9AA091253241183AA0ADA18F3
:100BC200812805BCB9CE8908523442248899CD695E
:100BD200F6499AAB1813441411819A89BB29915191
:100BE200A2AFB8AE88087324221488B9BF9ABA0992
:100BF2002352241202BA99CA19822805FA99CB8A79
:100C0200086225232480A9CEAABA8B324235122249
:100C1200B98ABA8E110933D88AEC9A88304632439F
:100C22008299FBAC9AAA2032451321A19BBBBB102F
:100C3200085491ABDC9C99085533341398FABCAA3A
:100C4200BA194353242191B9AACB8901210599DA12
:100C5200BD99096334341480B9BEAC9B0A31634335
:100C6200120199ACBA8A18103580BBCD9C893146E5
:100C7200433381A8EDABBA8A214345121199BABC1C
:100C82000B181072118ABB9E9929733363202FF3BC
:100C9200901BCA31990631B1808F91190221BAB3E2
:100CA2000FB23190229FA2382373A0C09EB829119F
:100CB2003620C21ADB00191439D808AB134A852929
:100CC200CC000A0731A188BFA81A137301826D26CE
:100CD2004C99BB21598410DB880C03509280AE9052
:100CE20039155290B0AFA829123511B19CCA3900FA
:100CF2001618C88ABA42300588FA0989344182999D
:100D0200CE990A23720181BBB81B035480B19D990D
:100D120049122489F88A8952221489DCAA9A324318
:100D22001510CA9A9B13618280BC992B164180B818
:100D3200AE9840335390E9ABBA30433510C89BBAF2
:100D420030311680EA898A335102A9BE98192722C6
:100D520082C9BDAA19246311A0AABB2A133581D95D
:100D6200ABAA52322498CDAA09543213A9BFAB8B35
:100D720042532381BBDB8A124202B0ADBA492443FB
:100D820080EAAB9952242488EBABAB30352401B90D
:100D9200BBAC30412390CDA90A253303DABD993883
:100DA200363382FACBAA18433402B0BBAD292224CF
:100DB20000EA9A9A532204A8DCA908443303BABF72
:100DC200BB0A53431390BBCC19114381B83BF64283
:100DD200AB0B373383CAAFA920354381CABDAA19E9
:100DE20034441198BBCB18123400EA9A9A52322337
:100DF200A9BF9B09453303B9BFBB8A34441291BBD7
:100E0200CB0A225301B89EAA302523A0FAAB9963DC
:100E1200332398CEAB9B41431401BABB8C214203CE
:100E220098AEAA29263291D9AC9A40352380FBABE1
:100E3200AB38343501B8CBAB20321688DAA90A5365
:100E42004201A8CDA928443382CAAEAB0934341278
:100E5200A0CBCB19323381EAAB9B612413A9FBAA45
:100E620019622303A9BECB8942331491BBCB0A3248
:100E72004382D9BBAB503522A0FBAA0A5124239945
:100E8200DCBA8B40431481A9CB8A204302A8BDAAB5
:100E920019364391C9AD9938363390EABBAC103458
:100EA2003401B8BBAD20321489EAAA89444281A830
:100EB200BDAA29553282C9BCBB0A442412A0BBCBAD
:100EC2001A243388DAACA9612314A8EBE7EA45991E
:100ED20028263390D9BCAA28532410B8BAAB494368
:100EE2001299EB9B89733282A9CD9909542301C9C6
:100EF200BCBB09533402A1BBCB2A333599D99C9A86
:100F0200512413A9DB9C8952240399DCAA9A323515
:100F12001300DA9A0B3234A0A9BF99382723A8CA42
:100F22009D99403423A8F9AB9A30342480B0ACBAEE
:100F32004123848BFB89094432A19AAF9918263345
:100F420090AABFA918243480A0BBBA4924239CD9F3
:100F52009B89733203BBFB9A08632383BADC9B8AA7
:100F620053428280BAAB0A3532C0A9AE98402512EC
:100F7200B8CA9D98523304A9DABBAA42340480A9A4
:100F8200AB8B5233A29CCC8A183633B1ACBD8A40AB
:100F92002623A0CBADAA20442380A8AC9B403304D7
:100FA200ABEA9A89542393BBBD9B29472292ABBDDE
:100FB200AB1A35349290BCA9191632AAC99D98422F
:100FC2002413BAEB9B09732303ABDCF7EE429A2896
:100FD200254290989CA93014149BCAAB09543383C0
:100FE200ACDB9A19552282ABDCAA0843439288CB28
:100FF2009A192541B0B9AD89411523BACA9D8862B3
:101002002312BAEBAB8951231499B99B9A3631B3A7
:10101200ACDB99383641B0AAAD89402523B8CAADB8
:10102200AA40333498B8AC9A611203BBEA9A884555
:1010320022929CCB8A18373191ABBEAA29254391C3
:1010420098BBA9591343BADA9C88621322BBEB8B73
:1010520008732202ABEB9B8953328489BA9A1A260F
:1010620030C19BBC88681422C8AABB88721422B9FA
:10107200CBBC9860122399C09AA94410939DC98948
:10108200283630B29DBB0A402721A0CACB9A382508
:10109200429099BA99510323DCA99B81650183ACE3
:1010A200BA8A203722A3ACCC8A0925419198AA9802
:1010B200390720C9A99B80731312CCB98A00651124
:1010C20082BACB9B897330838AB917FF30986181CA
:1010D20012ADAA8A18461193ADBA09204720A2BBC5
:1010E200CC99292442A209AB88490620DBA98B00AE
:1010F200738411DA990A10540202ADC98989432115
:10110200948AA981281709E19A9A11501529D99927
:101112008A02720211CBB90CA85381238CA82881B0
:10112200368AB09F9920202788C18C9911411518C1
:10113200D89A9A80488430C980190363B109BF984C
:101142002812459090AE9820213688C28DA9181891
:101152001619B00A083350950BEC09192261A288BE
:10116200EB891823739080BC9819013589A18E8070
:10117200322215ACE88B803342849AFA0A08335142
:10118200838AFB89090241A108BC10411432E9A9F2
:101192009E08212334BAD99D804212158AC99C889F
:1011A2002130050AE919183351B28CCD8810144246
:1011B200A099AE88303326A8B8AE982022259AC0CE
:1011C2008C00243194ABFB0B182CFE2D2325B9C9BE
:1011D2009E00412104A9D99B082242848ADA0A117D
:1011E2002531B29DDC08101432B0ABCE80311443ED
:1011F200B8B9AF08202233BAC98F10311305ACC970
:101202008B004421949BFB09103352A19ABD0A38EA
:101212001443B0AAAE18321523DABAAD1052210324
:10122200CBD98B20343383BDEA8A103342A2ACDBA4
:1012320019413332D0ACCB19322522E8A9BB106355
:101242001313DAB99D18323213BDD98B223522A37A
:10125200AFC90A212422B2ADDB08412342B8BBBE8A
:1012620008322432DABAAC21441303DCAA9C1153AB
:101272001293ACDB89302522A2ADCB0A312512C1F3
:10128200ABBC18442322F9AAAB10532312EBBAAA1F
:1012920030452201DBBA9C21342292AECA09412494
:1012A20021B0ADCB19423322E0ABAC18532313E982
:1012B200BAAB18352312CCBB8C30262281BDCB8928
:1012C200313522B1BDCB0942AE002B3383CCBC9B5E
:1012D20030262281CCBA0A524321B0CCAB0A532425
:1012E20011B8CC9B19443302D9CBAA18342411CBA0
:1012F200AC9B31362281BDCB8A312612A1BCBC09FE
:10130200432512A0BDBB09532421C9BBAC105422F2
:1013120001CABC9A20541281DABB8A41441291BCA0
:10132200AC8A323522A0BDAC19523312C9CCAA18EC
:10133200533301D9AC9B20353301EBCB8A204412C5
:1013420081DBBB8942441190BDAA0A433412C0BC5E
:10135200BB18543311C9BDAA10342401D9BB9B3028
:10136200361481DBBB8A32451290CCAA0A52431151
:10137200A0BDAB19522411C8CBAA10442301D9AC89
:10138200AA20441381EABA8A31451280DBBB0A41A2
:101392003413A8BDAC19433402B8BEBA2853240191
:1013A200C9ACAA20443300DBAC9A21441380DBBBD6
:1013B2008A42441290CCAB0A433412B8CDAA1843E5
:1013C2003402C9BCAB28443C012803A0CCBB09347D
:1013D2003502B8AEAB18533382C9BD9A20443300EC
:1013E200EABB9A30541380DBAB8A323613A0CCAC02
:1013F20009323502B0CCAB19343501B9BDAB284442
:101402003301DABC9A21542280DAAB8B4153128029
:10141200BCBC09423412A0CDBA08423402B8CD9AFB
:1014220018432401C9CB9B20531401CAAC9A3144FE
:101432001391BCBC8A41341390CDAA1A423412B81B
:10144200CDAA08432402B9BDAB28353481CABC9B5E
:1014520021441481DABA8A31352390DCBA0A323651
:1014620002A0CCAB19432502B8CC9B08533302CA65
:10147200BCAB20452381DACB8A20442280DBBB8AA5
:10148200424412A0DBAB0A523313B8CDAB19342558
:1014920002B9BD9B28532401CACB9A20352391DB84
:1014A200AC9A313523A0CCBB0A524313A8CCBB085B
:1014B200433403C8BCAB18442482B9BDAB204433C7
:1014C20081DAAC9A31636C001B11B9BC9B184433AE
:1014D20082E9AB9B20352491CAAC8B31442291BC6A
:1014E200BC0A424313A0BDBB09534302B8BDBA288C
:1014F200633381B9BE9A18353281DABB9B324522F9
:1015020090CAAC8A223414A0ACBB1A424481B0BB4C
:10151200AC19343302B9BD9C30336181B99BB1300F
:091522001122119B0900000000D8
:060000000200E10205C34D
:03000B000205C724
:030013000205F6ED
:03001B000205FAE1
:0300230002061EB4
:03002B000205FECD
:03003300020602C0
:03003B00020606B4
:0300430002060AA8
:03004B0002060E9C
:0300530002061290
:03005B0002061684
:0300630002061A78
:01006B003262
:01007300325A
:01007B003252
:01008300324A
:01008B003242
:01009300323A
:01009B003232
:0100A300322A
:0100AB003222
:0100B300321A
:0100BB003212
:0100C300320A
:0100CB003202
:0100D30032FA
:0300DB000202FF1F
:08014F00752680752700D2001F
:030162000200DEBA
:0300DE0002059484
:1004EA00758E00759850758BFC758DFFD28E758947
:1004FA000075A892758ACD758CF8D28C2275C126A2
:10050A0075C1367590007592FF75910075B00375C7
:10051A00B2FE75B10075C80075CA0075C9002274AB
:10052A0036B527028026743AB52702803A743BB55D
:10053A002702803A743CB52702803A743DB52702F7
:10054A00803A743EB5270280031202C43000347523
:10055A00C136120351E582600775273675820A2271
:10056A0075273A7582C82275273B7582C822752776
:10057A003C7582C82275273D7582C82275273E754B
:10058A0082C8227527007582FF227F058F06EE1426
:10059A002421F87600DFF51205071204EA90152BDC
:1005AA0075F080120672E52170FC120529AF82EF00
:0905BA00B5210280F18F2180F6C9
:0B152B007374617274207570210A0057
:1005C30043C76032C0E0C0D075D0087F058F0EEE00
:1005D300142421F9E76015EE142421F9870DBDFFDA
:1005E300028009EE142421F9E7FE14F7DFDFD0D0EF
:1005F300D0E03243C7603243C7603243C7603243FF
:10060300C7603243C7603243C7603243C760324377
:0B061300C7603243C7603243C760324B
:0B015700751D00751E00751F00C20121
:10061E00C0E0C082C083C007C0D075D00010990260
:10062E008024E51EB51D028015E51DFF04F51DEFA6
:10063E002401F582E43401F583E0F5998008C201C6
:10064E00751D00751E00109802800EE51F04F51F23
:10065E00E51F24F9500343C760D0D0D007D083D014
:10066E0082D0E032AD82AE83AFF08D828E838FF07A
:10067E001207F26025E51EFC04F51EEC2401FCE4D5
:10068E003401FB8D828E838FF01207F2FAA3AD82B6
:10069E00AE838C828B83EAF080D0200115D201E5E7
:1006AE001DFF04F51DEF2401F582E43401F583E00E
:1006BE00F59922AF82E51EFE04F51EEE2401F582A9
:1006CE00E43401F583EFF0200115D201E51DFF049E
:1006DE00F51DEF2401F582E43401F583E0F599224E
:1006EE00FB7A20E4FCFDFEFFE5822582F582E583A0
:1006FE0033F583E5F033F5F0EB33FB4017DAE980A1
:10070E0042E5822582F582E58333F583E5F033F504
:10071E00F0EB33FBEC33FCED33FDEE33FEEF33FF4A
:10072E00EC9528ED9529EE952AEF952B4013EC9537
:10073E0028FCED9529FDEE952AFEEF952BFF4382C1
:05074E0001DABEEB2200
:06011000E478FFF6D8FDC3
:1000EE007900E94400601B7A00901536780175A0FE
:1000FE0002E493F2A308B8000205A0D9F4DAF2756F
:02010E00A0FF50
:10075300E528452960467A01E52825E0F528E529BD
:10076300334012F529E5829528E583952940030A4C
:1007730080E6C3E52913F529E52813F528C3E582A7
:100783009528F5F0E58395294005F58385F082C327
:0D079300E52913F529E52813F528DAE12200
:100116007800E84400600A790175A000E4F309D884
:10012600FC7800E84402600C7902900001E4F0A338
:04013600D8FCD9FA1E
:1007A000FBC2D530E715D2D5E4C39582F582E49536
:1007B00083F583E495F0F5F0E49BFBE52B30E71738
:1007C000B2D5E4C39528F528E49529F529E4952ABE
:1007D000F52AE4952BF52BEB1206EE30D513FBE44E
:1007E000C39582F582E49583F583E495F0F5F0E412
:0207F0009B224A
:0D00E10075812B12080EE58260030200DE1F
:1007F20020F71430F6148883A88220F507E6A88330
:1008020075830022E280F7E49322E02275820022BF
:00000001FF
